{
  "contractName": "StudentCredential",
  "abi": [
    {
      "inputs": [],
      "stateMutability": "nonpayable",
      "type": "constructor"
    },
    {
      "inputs": [],
      "name": "admin",
      "outputs": [
        {
          "internalType": "address",
          "name": "",
          "type": "address"
        }
      ],
      "stateMutability": "view",
      "type": "function",
      "constant": true
    },
    {
      "inputs": [
        {
          "internalType": "uint256",
          "name": "",
          "type": "uint256"
        }
      ],
      "name": "degrees",
      "outputs": [
        {
          "internalType": "uint256",
          "name": "degreeId",
          "type": "uint256"
        },
        {
          "internalType": "uint256",
          "name": "studentId",
          "type": "uint256"
        },
        {
          "internalType": "string",
          "name": "degreeType",
          "type": "string"
        },
        {
          "internalType": "uint256",
          "name": "issueDate",
          "type": "uint256"
        },
        {
          "internalType": "string",
          "name": "issuingOrganization",
          "type": "string"
        },
        {
          "internalType": "bool",
          "name": "revoked",
          "type": "bool"
        }
      ],
      "stateMutability": "view",
      "type": "function",
      "constant": true
    },
    {
      "inputs": [],
      "name": "nextDegreeId",
      "outputs": [
        {
          "internalType": "uint256",
          "name": "",
          "type": "uint256"
        }
      ],
      "stateMutability": "view",
      "type": "function",
      "constant": true
    },
    {
      "inputs": [
        {
          "internalType": "uint256",
          "name": "",
          "type": "uint256"
        },
        {
          "internalType": "uint256",
          "name": "",
          "type": "uint256"
        }
      ],
      "name": "studentDegrees",
      "outputs": [
        {
          "internalType": "uint256",
          "name": "",
          "type": "uint256"
        }
      ],
      "stateMutability": "view",
      "type": "function",
      "constant": true
    },
    {
      "inputs": [
        {
          "internalType": "uint256",
          "name": "",
          "type": "uint256"
        },
        {
          "internalType": "uint256",
          "name": "",
          "type": "uint256"
        }
      ],
      "name": "studentGrades",
      "outputs": [
        {
          "internalType": "string",
          "name": "subjectName",
          "type": "string"
        },
        {
          "internalType": "string",
          "name": "semester",
          "type": "string"
        },
        {
          "internalType": "uint256",
          "name": "score",
          "type": "uint256"
        }
      ],
      "stateMutability": "view",
      "type": "function",
      "constant": true
    },
    {
      "inputs": [
        {
          "internalType": "uint256",
          "name": "",
          "type": "uint256"
        }
      ],
      "name": "studentIds",
      "outputs": [
        {
          "internalType": "uint256",
          "name": "",
          "type": "uint256"
        }
      ],
      "stateMutability": "view",
      "type": "function",
      "constant": true
    },
    {
      "inputs": [
        {
          "internalType": "uint256",
          "name": "",
          "type": "uint256"
        }
      ],
      "name": "students",
      "outputs": [
        {
          "internalType": "uint256",
          "name": "studentId",
          "type": "uint256"
        },
        {
          "internalType": "string",
          "name": "fullName",
          "type": "string"
        },
        {
          "internalType": "string",
          "name": "dateOfBirth",
          "type": "string"
        },
        {
          "internalType": "string",
          "name": "course",
          "type": "string"
        },
        {
          "internalType": "uint256",
          "name": "enrollmentYear",
          "type": "uint256"
        },
        {
          "internalType": "address",
          "name": "walletAddress",
          "type": "address"
        },
        {
          "internalType": "bool",
          "name": "exists",
          "type": "bool"
        }
      ],
      "stateMutability": "view",
      "type": "function",
      "constant": true
    },
    {
      "inputs": [
        {
          "internalType": "address",
          "name": "",
          "type": "address"
        }
      ],
      "name": "walletToStudentId",
      "outputs": [
        {
          "internalType": "uint256",
          "name": "",
          "type": "uint256"
        }
      ],
      "stateMutability": "view",
      "type": "function",
      "constant": true
    },
    {
      "inputs": [
        {
          "internalType": "address",
          "name": "_newAdmin",
          "type": "address"
        }
      ],
      "name": "setAdmin",
      "outputs": [],
      "stateMutability": "nonpayable",
      "type": "function"
    },
    {
      "inputs": [
        {
          "internalType": "uint256",
          "name": "_studentId",
          "type": "uint256"
        },
        {
          "internalType": "string",
          "name": "_fullName",
          "type": "string"
        },
        {
          "internalType": "string",
          "name": "_dateOfBirth",
          "type": "string"
        },
        {
          "internalType": "string",
          "name": "_course",
          "type": "string"
        },
        {
          "internalType": "uint256",
          "name": "_enrollmentYear",
          "type": "uint256"
        },
        {
          "internalType": "address",
          "name": "_walletAddress",
          "type": "address"
        }
      ],
      "name": "createStudent",
      "outputs": [],
      "stateMutability": "nonpayable",
      "type": "function"
    },
    {
      "inputs": [
        {
          "internalType": "uint256",
          "name": "_studentId",
          "type": "uint256"
        },
        {
          "internalType": "string",
          "name": "_fullName",
          "type": "string"
        },
        {
          "internalType": "string",
          "name": "_dateOfBirth",
          "type": "string"
        },
        {
          "internalType": "string",
          "name": "_course",
          "type": "string"
        },
        {
          "internalType": "uint256",
          "name": "_enrollmentYear",
          "type": "uint256"
        }
      ],
      "name": "updateStudent",
      "outputs": [],
      "stateMutability": "nonpayable",
      "type": "function"
    },
    {
      "inputs": [
        {
          "internalType": "uint256",
          "name": "_studentId",
          "type": "uint256"
        },
        {
          "internalType": "string",
          "name": "_subjectName",
          "type": "string"
        },
        {
          "internalType": "string",
          "name": "_semester",
          "type": "string"
        },
        {
          "internalType": "uint256",
          "name": "_score",
          "type": "uint256"
        }
      ],
      "name": "addGrade",
      "outputs": [],
      "stateMutability": "nonpayable",
      "type": "function"
    },
    {
      "inputs": [
        {
          "internalType": "uint256",
          "name": "_studentId",
          "type": "uint256"
        }
      ],
      "name": "getStudentGrades",
      "outputs": [
        {
          "components": [
            {
              "internalType": "string",
              "name": "subjectName",
              "type": "string"
            },
            {
              "internalType": "string",
              "name": "semester",
              "type": "string"
            },
            {
              "internalType": "uint256",
              "name": "score",
              "type": "uint256"
            }
          ],
          "internalType": "struct StudentCredential.Grade[]",
          "name": "",
          "type": "tuple[]"
        }
      ],
      "stateMutability": "view",
      "type": "function",
      "constant": true
    },
    {
      "inputs": [
        {
          "internalType": "uint256",
          "name": "_studentId",
          "type": "uint256"
        },
        {
          "internalType": "string",
          "name": "_degreeType",
          "type": "string"
        },
        {
          "internalType": "string",
          "name": "_issuingOrganization",
          "type": "string"
        }
      ],
      "name": "issueDegree",
      "outputs": [],
      "stateMutability": "nonpayable",
      "type": "function"
    },
    {
      "inputs": [
        {
          "internalType": "uint256",
          "name": "_degreeId",
          "type": "uint256"
        }
      ],
      "name": "revokeDegree",
      "outputs": [],
      "stateMutability": "nonpayable",
      "type": "function"
    },
    {
      "inputs": [
        {
          "internalType": "uint256",
          "name": "_degreeId",
          "type": "uint256"
        }
      ],
      "name": "verifyDegree",
      "outputs": [
        {
          "internalType": "bool",
          "name": "isValid",
          "type": "bool"
        },
        {
          "components": [
            {
              "internalType": "uint256",
              "name": "degreeId",
              "type": "uint256"
            },
            {
              "internalType": "uint256",
              "name": "studentId",
              "type": "uint256"
            },
            {
              "internalType": "string",
              "name": "degreeType",
              "type": "string"
            },
            {
              "internalType": "uint256",
              "name": "issueDate",
              "type": "uint256"
            },
            {
              "internalType": "string",
              "name": "issuingOrganization",
              "type": "string"
            },
            {
              "internalType": "bool",
              "name": "revoked",
              "type": "bool"
            }
          ],
          "internalType": "struct StudentCredential.Degree",
          "name": "degree",
          "type": "tuple"
        }
      ],
      "stateMutability": "view",
      "type": "function",
      "constant": true
    },
    {
      "inputs": [
        {
          "internalType": "uint256",
          "name": "_studentId",
          "type": "uint256"
        }
      ],
      "name": "getStudent",
      "outputs": [
        {
          "components": [
            {
              "internalType": "uint256",
              "name": "studentId",
              "type": "uint256"
            },
            {
              "internalType": "string",
              "name": "fullName",
              "type": "string"
            },
            {
              "internalType": "string",
              "name": "dateOfBirth",
              "type": "string"
            },
            {
              "internalType": "string",
              "name": "course",
              "type": "string"
            },
            {
              "internalType": "uint256",
              "name": "enrollmentYear",
              "type": "uint256"
            },
            {
              "internalType": "address",
              "name": "walletAddress",
              "type": "address"
            },
            {
              "internalType": "bool",
              "name": "exists",
              "type": "bool"
            }
          ],
          "internalType": "struct StudentCredential.Student",
          "name": "",
          "type": "tuple"
        }
      ],
      "stateMutability": "view",
      "type": "function",
      "constant": true
    },
    {
      "inputs": [],
      "name": "getAllStudentIds",
      "outputs": [
        {
          "internalType": "uint256[]",
          "name": "",
          "type": "uint256[]"
        }
      ],
      "stateMutability": "view",
      "type": "function",
      "constant": true
    },
    {
      "inputs": [],
      "name": "getStudentCount",
      "outputs": [
        {
          "internalType": "uint256",
          "name": "",
          "type": "uint256"
        }
      ],
      "stateMutability": "view",
      "type": "function",
      "constant": true
    },
    {
      "inputs": [
        {
          "internalType": "uint256",
          "name": "_studentId",
          "type": "uint256"
        }
      ],
      "name": "getDegreesByStudent",
      "outputs": [
        {
          "internalType": "uint256[]",
          "name": "",
          "type": "uint256[]"
        }
      ],
      "stateMutability": "view",
      "type": "function",
      "constant": true
    },
    {
      "inputs": [
        {
          "internalType": "address",
          "name": "_walletAddress",
          "type": "address"
        }
      ],
      "name": "getStudentIdByWallet",
      "outputs": [
        {
          "internalType": "uint256",
          "name": "",
          "type": "uint256"
        }
      ],
      "stateMutability": "view",
      "type": "function",
      "constant": true
    },
    {
      "inputs": [
        {
          "internalType": "address",
          "name": "_walletAddress",
          "type": "address"
        }
      ],
      "name": "getStudentByWallet",
      "outputs": [
        {
          "components": [
            {
              "internalType": "uint256",
              "name": "studentId",
              "type": "uint256"
            },
            {
              "internalType": "string",
              "name": "fullName",
              "type": "string"
            },
            {
              "internalType": "string",
              "name": "dateOfBirth",
              "type": "string"
            },
            {
              "internalType": "string",
              "name": "course",
              "type": "string"
            },
            {
              "internalType": "uint256",
              "name": "enrollmentYear",
              "type": "uint256"
            },
            {
              "internalType": "address",
              "name": "walletAddress",
              "type": "address"
            },
            {
              "internalType": "bool",
              "name": "exists",
              "type": "bool"
            }
          ],
          "internalType": "struct StudentCredential.Student",
          "name": "",
          "type": "tuple"
        }
      ],
      "stateMutability": "view",
      "type": "function",
      "constant": true
    },
    {
      "inputs": [
        {
          "internalType": "address",
          "name": "_walletAddress",
          "type": "address"
        }
      ],
      "name": "getStudentGradesByWallet",
      "outputs": [
        {
          "components": [
            {
              "internalType": "string",
              "name": "subjectName",
              "type": "string"
            },
            {
              "internalType": "string",
              "name": "semester",
              "type": "string"
            },
            {
              "internalType": "uint256",
              "name": "score",
              "type": "uint256"
            }
          ],
          "internalType": "struct StudentCredential.Grade[]",
          "name": "",
          "type": "tuple[]"
        }
      ],
      "stateMutability": "view",
      "type": "function",
      "constant": true
    },
    {
      "inputs": [
        {
          "internalType": "address",
          "name": "_walletAddress",
          "type": "address"
        }
      ],
      "name": "getStudentDegreesByWallet",
      "outputs": [
        {
          "internalType": "uint256[]",
          "name": "",
          "type": "uint256[]"
        }
      ],
      "stateMutability": "view",
      "type": "function",
      "constant": true
    }
  ],
  "bytecode": "0x6080604052600160075534801561001557600080fd5b50336000806101000a81548173ffffffffffffffffffffffffffffffffffffffff021916908373ffffffffffffffffffffffffffffffffffffffff1602179055506132b3806100656000396000f3fe608060405234801561001057600080fd5b50600436106101585760003560e01c80636ffb0009116100c357806392b03e4b1161007c57806392b03e4b1461042f578063a581aaf71461045f578063b103e4311461048f578063ccd38cc8146104bf578063f058720c146104ef578063f851a4401461050d57610158565b80636ffb000914610358578063704b6c02146103745780637b22fbcf1461039057806381f1c3bc146103c0578063834d336c146103f55780638d7278fa1461041357610158565b80634c32d9ef116101155780634c32d9ef1461024c5780634df2b7241461027c578063591175a5146102ac578063642f9163146102dc578063657041381461030c5780636f28c3551461032857610158565b806306ead22e1461015d57806313aff9d01461019357806316e44d84146101c557806320f722a3146101e157806341e0c407146102125780634851cea514610230575b600080fd5b61017760048036038101906101729190612459565b61052b565b60405161018a9796959493929190612eb9565b60405180910390f35b6101ad60048036038101906101a89190612724565b610732565b6040516101bc93929190612d57565b60405180910390f35b6101df60048036038101906101da9190612691565b610889565b005b6101fb60048036038101906101f69190612459565b610a1d565b604051610209929190612d27565b60405180910390f35b61021a610bc8565b6040516102279190612e9e565b60405180910390f35b61024a60048036038101906102459190612459565b610bd5565b005b61026660048036038101906102619190612459565b610cef565b6040516102739190612ce3565b60405180910390f35b61029660048036038101906102919190612724565b610e8f565b6040516102a39190612e9e565b60405180910390f35b6102c660048036038101906102c19190612430565b610ec0565b6040516102d39190612ce3565b60405180910390f35b6102f660048036038101906102f19190612459565b611114565b6040516103039190612e7c565b60405180910390f35b61032660048036038101906103219190612482565b61137c565b005b610342600480360381019061033d9190612459565b611588565b60405161034f9190612e9e565b60405180910390f35b610372600480360381019061036d9190612501565b6115ac565b005b61038e60048036038101906103899190612430565b611740565b005b6103aa60048036038101906103a59190612430565b611881565b6040516103b79190612e7c565b60405180910390f35b6103da60048036038101906103d59190612459565b611b9d565b6040516103ec96959493929190612f3d565b60405180910390f35b6103fd611cf6565b60405161040a9190612d05565b60405180910390f35b61042d600480360381019061042891906125c0565b611d4e565b005b61044960048036038101906104449190612459565b612059565b6040516104569190612d05565b60405180910390f35b61047960048036038101906104749190612430565b6120c4565b6040516104869190612d05565b60405180910390f35b6104a960048036038101906104a49190612430565b6121e3565b6040516104b69190612e9e565b60405180910390f35b6104d960048036038101906104d49190612430565b6121fb565b6040516104e69190612e9e565b60405180910390f35b6104f7612244565b6040516105049190612e9e565b60405180910390f35b61051561224a565b6040516105229190612cc8565b60405180910390f35b600160205280600052604060002060009150905080600001549080600101805461055490613136565b80601f016020809104026020016040519081016040528092919081815260200182805461058090613136565b80156105cd5780601f106105a2576101008083540402835291602001916105cd565b820191906000526020600020905b8154815290600101906020018083116105b057829003601f168201915b5050505050908060020180546105e290613136565b80601f016020809104026020016040519081016040528092919081815260200182805461060e90613136565b801561065b5780601f106106305761010080835404028352916020019161065b565b820191906000526020600020905b81548152906001019060200180831161063e57829003601f168201915b50505050509080600301805461067090613136565b80601f016020809104026020016040519081016040528092919081815260200182805461069c90613136565b80156106e95780601f106106be576101008083540402835291602001916106e9565b820191906000526020600020905b8154815290600101906020018083116106cc57829003601f168201915b5050505050908060040154908060050160009054906101000a900473ffffffffffffffffffffffffffffffffffffffff16908060050160149054906101000a900460ff16905087565b6002602052816000526040600020818154811061074e57600080fd5b90600052602060002090600302016000915091505080600001805461077290613136565b80601f016020809104026020016040519081016040528092919081815260200182805461079e90613136565b80156107eb5780601f106107c0576101008083540402835291602001916107eb565b820191906000526020600020905b8154815290600101906020018083116107ce57829003601f168201915b50505050509080600101805461080090613136565b80601f016020809104026020016040519081016040528092919081815260200182805461082c90613136565b80156108795780601f1061084e57610100808354040283529160200191610879565b820191906000526020600020905b81548152906001019060200180831161085c57829003601f168201915b5050505050908060020154905083565b60008054906101000a900473ffffffffffffffffffffffffffffffffffffffff1673ffffffffffffffffffffffffffffffffffffffff163373ffffffffffffffffffffffffffffffffffffffff1614610917576040517f08c379a000000000000000000000000000000000000000000000000000000000815260040161090e90612e3c565b60405180910390fd5b6001600085815260200190815260200160002060050160149054906101000a900460ff1661097a576040517f08c379a000000000000000000000000000000000000000000000000000000000815260040161097190612dfc565b60405180910390fd5b60026000858152602001908152602001600020604051806060016040528085815260200184815260200183815250908060018154018082558091505060019003906000526020600020906003020160009091909190915060008201518160000190805190602001906109ed92919061226e565b506020820151816001019080519060200190610a0a92919061226e565b5060408201518160020155505050505050565b6000610a276122f4565b600360008481526020019081526020016000206040518060c00160405290816000820154815260200160018201548152602001600282018054610a6990613136565b80601f0160208091040260200160405190810160405280929190818152602001828054610a9590613136565b8015610ae25780601f10610ab757610100808354040283529160200191610ae2565b820191906000526020600020905b815481529060010190602001808311610ac557829003601f168201915b5050505050815260200160038201548152602001600482018054610b0590613136565b80601f0160208091040260200160405190810160405280929190818152602001828054610b3190613136565b8015610b7e5780601f10610b5357610100808354040283529160200191610b7e565b820191906000526020600020905b815481529060010190602001808311610b6157829003601f168201915b505050505081526020016005820160009054906101000a900460ff1615151515815250509050600081600001511415610bba5760009150610bc3565b8060a001511591505b915091565b6000600680549050905090565b60008054906101000a900473ffffffffffffffffffffffffffffffffffffffff1673ffffffffffffffffffffffffffffffffffffffff163373ffffffffffffffffffffffffffffffffffffffff1614610c63576040517f08c379a0000000000000000000000000000000000000000000000000000000008152600401610c5a90612e3c565b60405180910390fd5b600060036000838152602001908152602001600020600001541415610cbd576040517f08c379a0000000000000000000000000000000000000000000000000000000008152600401610cb490612ddc565b60405180910390fd5b60016003600083815260200190815260200160002060050160006101000a81548160ff02191690831515021790555050565b606060026000838152602001908152602001600020805480602002602001604051908101604052809291908181526020016000905b82821015610e845783829060005260206000209060030201604051806060016040529081600082018054610d5790613136565b80601f0160208091040260200160405190810160405280929190818152602001828054610d8390613136565b8015610dd05780601f10610da557610100808354040283529160200191610dd0565b820191906000526020600020905b815481529060010190602001808311610db357829003601f168201915b50505050508152602001600182018054610de990613136565b80601f0160208091040260200160405190810160405280929190818152602001828054610e1590613136565b8015610e625780601f10610e3757610100808354040283529160200191610e62565b820191906000526020600020905b815481529060010190602001808311610e4557829003601f168201915b5050505050815260200160028201548152505081526020019060010190610d24565b505050509050919050565b60046020528160005260406000208181548110610eab57600080fd5b90600052602060002001600091509150505481565b60606000600560008473ffffffffffffffffffffffffffffffffffffffff1673ffffffffffffffffffffffffffffffffffffffff168152602001908152602001600020549050600081141580610f3657506001600082815260200190815260200160002060050160149054906101000a900460ff165b610f75576040517f08c379a0000000000000000000000000000000000000000000000000000000008152600401610f6c90612dbc565b60405180910390fd5b60026000828152602001908152602001600020805480602002602001604051908101604052809291908181526020016000905b828210156111085783829060005260206000209060030201604051806060016040529081600082018054610fdb90613136565b80601f016020809104026020016040519081016040528092919081815260200182805461100790613136565b80156110545780601f1061102957610100808354040283529160200191611054565b820191906000526020600020905b81548152906001019060200180831161103757829003601f168201915b5050505050815260200160018201805461106d90613136565b80601f016020809104026020016040519081016040528092919081815260200182805461109990613136565b80156110e65780601f106110bb576101008083540402835291602001916110e6565b820191906000526020600020905b8154815290600101906020018083116110c957829003601f168201915b5050505050815260200160028201548152505081526020019060010190610fa8565b50505050915050919050565b61111c61232c565b600160008381526020019081526020016000206040518060e00160405290816000820154815260200160018201805461115490613136565b80601f016020809104026020016040519081016040528092919081815260200182805461118090613136565b80156111cd5780601f106111a2576101008083540402835291602001916111cd565b820191906000526020600020905b8154815290600101906020018083116111b057829003601f168201915b505050505081526020016002820180546111e690613136565b80601f016020809104026020016040519081016040528092919081815260200182805461121290613136565b801561125f5780601f106112345761010080835404028352916020019161125f565b820191906000526020600020905b81548152906001019060200180831161124257829003601f168201915b5050505050815260200160038201805461127890613136565b80601f01602080910402602001604051908101604052809291908181526020018280546112a490613136565b80156112f15780601f106112c6576101008083540402835291602001916112f1565b820191906000526020600020905b8154815290600101906020018083116112d457829003601f168201915b50505050508152602001600482015481526020016005820160009054906101000a900473ffffffffffffffffffffffffffffffffffffffff1673ffffffffffffffffffffffffffffffffffffffff1673ffffffffffffffffffffffffffffffffffffffff1681526020016005820160149054906101000a900460ff1615151515815250509050919050565b60008054906101000a900473ffffffffffffffffffffffffffffffffffffffff1673ffffffffffffffffffffffffffffffffffffffff163373ffffffffffffffffffffffffffffffffffffffff161461140a576040517f08c379a000000000000000000000000000000000000000000000000000000000815260040161140190612e3c565b60405180910390fd5b6001600084815260200190815260200160002060050160149054906101000a900460ff1661146d576040517f08c379a000000000000000000000000000000000000000000000000000000000815260040161146490612dfc565b60405180910390fd5b6040518060c00160405280600754815260200184815260200183815260200142815260200182815260200160001515815250600360006007548152602001908152602001600020600082015181600001556020820151816001015560408201518160020190805190602001906114e492919061226e565b5060608201518160030155608082015181600401908051906020019061150b92919061226e565b5060a08201518160050160006101000a81548160ff0219169083151502179055509050506004600084815260200190815260200160002060075490806001815401808255809150506001900390600052602060002001600090919091909150556007600081548092919061157e90613168565b9190505550505050565b6006818154811061159857600080fd5b906000526020600020016000915090505481565b60008054906101000a900473ffffffffffffffffffffffffffffffffffffffff1673ffffffffffffffffffffffffffffffffffffffff163373ffffffffffffffffffffffffffffffffffffffff161461163a576040517f08c379a000000000000000000000000000000000000000000000000000000000815260040161163190612e3c565b60405180910390fd5b6001600086815260200190815260200160002060050160149054906101000a900460ff1661169d576040517f08c379a000000000000000000000000000000000000000000000000000000000815260040161169490612dfc565b60405180910390fd5b836001600087815260200190815260200160002060010190805190602001906116c792919061226e565b50826001600087815260200190815260200160002060020190805190602001906116f292919061226e565b508160016000878152602001908152602001600020600301908051906020019061171d92919061226e565b508060016000878152602001908152602001600020600401819055505050505050565b60008054906101000a900473ffffffffffffffffffffffffffffffffffffffff1673ffffffffffffffffffffffffffffffffffffffff163373ffffffffffffffffffffffffffffffffffffffff16146117ce576040517f08c379a00000000000000000000000000000000000000000000000000000000081526004016117c590612e3c565b60405180910390fd5b600073ffffffffffffffffffffffffffffffffffffffff168173ffffffffffffffffffffffffffffffffffffffff16141561183e576040517f08c379a000000000000000000000000000000000000000000000000000000000815260040161183590612d9c565b60405180910390fd5b806000806101000a81548173ffffffffffffffffffffffffffffffffffffffff021916908373ffffffffffffffffffffffffffffffffffffffff16021790555050565b61188961232c565b6000600560008473ffffffffffffffffffffffffffffffffffffffff1673ffffffffffffffffffffffffffffffffffffffff1681526020019081526020016000205490506000811415806118fd57506001600082815260200190815260200160002060050160149054906101000a900460ff165b61193c576040517f08c379a000000000000000000000000000000000000000000000000000000000815260040161193390612dbc565b60405180910390fd5b600160008281526020019081526020016000206040518060e00160405290816000820154815260200160018201805461197490613136565b80601f01602080910402602001604051908101604052809291908181526020018280546119a090613136565b80156119ed5780601f106119c2576101008083540402835291602001916119ed565b820191906000526020600020905b8154815290600101906020018083116119d057829003601f168201915b50505050508152602001600282018054611a0690613136565b80601f0160208091040260200160405190810160405280929190818152602001828054611a3290613136565b8015611a7f5780601f10611a5457610100808354040283529160200191611a7f565b820191906000526020600020905b815481529060010190602001808311611a6257829003601f168201915b50505050508152602001600382018054611a9890613136565b80601f0160208091040260200160405190810160405280929190818152602001828054611ac490613136565b8015611b115780601f10611ae657610100808354040283529160200191611b11565b820191906000526020600020905b815481529060010190602001808311611af457829003601f168201915b50505050508152602001600482015481526020016005820160009054906101000a900473ffffffffffffffffffffffffffffffffffffffff1673ffffffffffffffffffffffffffffffffffffffff1673ffffffffffffffffffffffffffffffffffffffff1681526020016005820160149054906101000a900460ff161515151581525050915050919050565b6003602052806000526040600020600091509050806000015490806001015490806002018054611bcc90613136565b80601f0160208091040260200160405190810160405280929190818152602001828054611bf890613136565b8015611c455780601f10611c1a57610100808354040283529160200191611c45565b820191906000526020600020905b815481529060010190602001808311611c2857829003601f168201915b505050505090806003015490806004018054611c6090613136565b80601f0160208091040260200160405190810160405280929190818152602001828054611c8c90613136565b8015611cd95780601f10611cae57610100808354040283529160200191611cd9565b820191906000526020600020905b815481529060010190602001808311611cbc57829003601f168201915b5050505050908060050160009054906101000a900460ff16905086565b60606006805480602002602001604051908101604052809291908181526020018280548015611d4457602002820191906000526020600020905b815481526020019060010190808311611d30575b5050505050905090565b60008054906101000a900473ffffffffffffffffffffffffffffffffffffffff1673ffffffffffffffffffffffffffffffffffffffff163373ffffffffffffffffffffffffffffffffffffffff1614611ddc576040517f08c379a0000000000000000000000000000000000000000000000000000000008152600401611dd390612e3c565b60405180910390fd5b6001600087815260200190815260200160002060050160149054906101000a900460ff1615611e40576040517f08c379a0000000000000000000000000000000000000000000000000000000008152600401611e3790612e1c565b60405180910390fd5b600073ffffffffffffffffffffffffffffffffffffffff168173ffffffffffffffffffffffffffffffffffffffff161415611eb0576040517f08c379a0000000000000000000000000000000000000000000000000000000008152600401611ea790612e5c565b60405180910390fd5b6040518060e001604052808781526020018681526020018581526020018481526020018381526020018273ffffffffffffffffffffffffffffffffffffffff1681526020016001151581525060016000888152602001908152602001600020600082015181600001556020820151816001019080519060200190611f3592919061226e565b506040820151816002019080519060200190611f5292919061226e565b506060820151816003019080519060200190611f6f92919061226e565b506080820151816004015560a08201518160050160006101000a81548173ffffffffffffffffffffffffffffffffffffffff021916908373ffffffffffffffffffffffffffffffffffffffff16021790555060c08201518160050160146101000a81548160ff02191690831515021790555090505085600560008373ffffffffffffffffffffffffffffffffffffffff1673ffffffffffffffffffffffffffffffffffffffff168152602001908152602001600020819055506006869080600181540180825580915050600190039060005260206000200160009091909190915055505050505050565b6060600460008381526020019081526020016000208054806020026020016040519081016040528092919081815260200182805480156120b857602002820191906000526020600020905b8154815260200190600101908083116120a4575b50505050509050919050565b60606000600560008473ffffffffffffffffffffffffffffffffffffffff1673ffffffffffffffffffffffffffffffffffffffff16815260200190815260200160002054905060008114158061213a57506001600082815260200190815260200160002060050160149054906101000a900460ff165b612179576040517f08c379a000000000000000000000000000000000000000000000000000000000815260040161217090612dbc565b60405180910390fd5b600460008281526020019081526020016000208054806020026020016040519081016040528092919081815260200182805480156121d657602002820191906000526020600020905b8154815260200190600101908083116121c2575b5050505050915050919050565b60056020528060005260406000206000915090505481565b6000600560008373ffffffffffffffffffffffffffffffffffffffff1673ffffffffffffffffffffffffffffffffffffffff168152602001908152602001600020549050919050565b60075481565b60008054906101000a900473ffffffffffffffffffffffffffffffffffffffff1681565b82805461227a90613136565b90600052602060002090601f01602090048101928261229c57600085556122e3565b82601f106122b557805160ff19168380011785556122e3565b828001600101855582156122e3579182015b828111156122e25782518255916020019190600101906122c7565b5b5090506122f09190612381565b5090565b6040518060c0016040528060008152602001600081526020016060815260200160008152602001606081526020016000151581525090565b6040518060e001604052806000815260200160608152602001606081526020016060815260200160008152602001600073ffffffffffffffffffffffffffffffffffffffff1681526020016000151581525090565b5b8082111561239a576000816000905550600101612382565b5090565b60006123b16123ac84612fdd565b612fac565b9050828152602081018484840111156123c957600080fd5b6123d48482856130f4565b509392505050565b6000813590506123eb8161324f565b92915050565b600082601f83011261240257600080fd5b813561241284826020860161239e565b91505092915050565b60008135905061242a81613266565b92915050565b60006020828403121561244257600080fd5b6000612450848285016123dc565b91505092915050565b60006020828403121561246b57600080fd5b60006124798482850161241b565b91505092915050565b60008060006060848603121561249757600080fd5b60006124a58682870161241b565b935050602084013567ffffffffffffffff8111156124c257600080fd5b6124ce868287016123f1565b925050604084013567ffffffffffffffff8111156124eb57600080fd5b6124f7868287016123f1565b9150509250925092565b600080600080600060a0868803121561251957600080fd5b60006125278882890161241b565b955050602086013567ffffffffffffffff81111561254457600080fd5b612550888289016123f1565b945050604086013567ffffffffffffffff81111561256d57600080fd5b612579888289016123f1565b935050606086013567ffffffffffffffff81111561259657600080fd5b6125a2888289016123f1565b92505060806125b38882890161241b565b9150509295509295909350565b60008060008060008060c087890312156125d957600080fd5b60006125e789828a0161241b565b965050602087013567ffffffffffffffff81111561260457600080fd5b61261089828a016123f1565b955050604087013567ffffffffffffffff81111561262d57600080fd5b61263989828a016123f1565b945050606087013567ffffffffffffffff81111561265657600080fd5b61266289828a016123f1565b935050608061267389828a0161241b565b92505060a061268489828a016123dc565b9150509295509295509295565b600080600080608085870312156126a757600080fd5b60006126b58782880161241b565b945050602085013567ffffffffffffffff8111156126d257600080fd5b6126de878288016123f1565b935050604085013567ffffffffffffffff8111156126fb57600080fd5b612707878288016123f1565b92505060606127188782880161241b565b91505092959194509250565b6000806040838503121561273757600080fd5b60006127458582860161241b565b92505060206127568582860161241b565b9150509250929050565b600061276c8383612ba9565b905092915050565b60006127808383612caa565b60208301905092915050565b612795816130ac565b82525050565b6127a4816130ac565b82525050565b60006127b58261302d565b6127bf8185613068565b9350836020820285016127d18561300d565b8060005b8581101561280d57848403895281516127ee8582612760565b94506127f98361304e565b925060208a019950506001810190506127d5565b50829750879550505050505092915050565b600061282a82613038565b6128348185613079565b935061283f8361301d565b8060005b838110156128705781516128578882612774565b97506128628361305b565b925050600181019050612843565b5085935050505092915050565b612886816130be565b82525050565b612895816130be565b82525050565b60006128a682613043565b6128b0818561308a565b93506128c0818560208601613103565b6128c98161323e565b840191505092915050565b60006128df82613043565b6128e9818561309b565b93506128f9818560208601613103565b6129028161323e565b840191505092915050565b600061291a60158361309b565b91507f496e76616c69642061646d696e206164647265737300000000000000000000006000830152602082019050919050565b600061295a60218361309b565b91507f53747564656e74206e6f7420666f756e6420666f7220746869732077616c6c6560008301527f74000000000000000000000000000000000000000000000000000000000000006020830152604082019050919050565b60006129c060158361309b565b91507f44656772656520646f6573206e6f7420657869737400000000000000000000006000830152602082019050919050565b6000612a0060168361309b565b91507f53747564656e7420646f6573206e6f74206578697374000000000000000000006000830152602082019050919050565b6000612a4060168361309b565b91507f53747564656e7420616c726561647920657869737473000000000000000000006000830152602082019050919050565b6000612a8060228361309b565b91507f4f6e6c792061646d696e2063616e20706572666f726d2074686973206163746960008301527f6f6e0000000000000000000000000000000000000000000000000000000000006020830152604082019050919050565b6000612ae660168361309b565b91507f496e76616c69642077616c6c65742061646472657373000000000000000000006000830152602082019050919050565b600060c083016000830151612b316000860182612caa565b506020830151612b446020860182612caa565b5060408301518482036040860152612b5c828261289b565b9150506060830151612b716060860182612caa565b5060808301518482036080860152612b89828261289b565b91505060a0830151612b9e60a086018261287d565b508091505092915050565b60006060830160008301518482036000860152612bc6828261289b565b91505060208301518482036020860152612be0828261289b565b9150506040830151612bf56040860182612caa565b508091505092915050565b600060e083016000830151612c186000860182612caa565b5060208301518482036020860152612c30828261289b565b91505060408301518482036040860152612c4a828261289b565b91505060608301518482036060860152612c64828261289b565b9150506080830151612c796080860182612caa565b5060a0830151612c8c60a086018261278c565b5060c0830151612c9f60c086018261287d565b508091505092915050565b612cb3816130ea565b82525050565b612cc2816130ea565b82525050565b6000602082019050612cdd600083018461279b565b92915050565b60006020820190508181036000830152612cfd81846127aa565b905092915050565b60006020820190508181036000830152612d1f818461281f565b905092915050565b6000604082019050612d3c600083018561288c565b8181036020830152612d4e8184612b19565b90509392505050565b60006060820190508181036000830152612d7181866128d4565b90508181036020830152612d8581856128d4565b9050612d946040830184612cb9565b949350505050565b60006020820190508181036000830152612db58161290d565b9050919050565b60006020820190508181036000830152612dd58161294d565b9050919050565b60006020820190508181036000830152612df5816129b3565b9050919050565b60006020820190508181036000830152612e15816129f3565b9050919050565b60006020820190508181036000830152612e3581612a33565b9050919050565b60006020820190508181036000830152612e5581612a73565b9050919050565b60006020820190508181036000830152612e7581612ad9565b9050919050565b60006020820190508181036000830152612e968184612c00565b905092915050565b6000602082019050612eb36000830184612cb9565b92915050565b600060e082019050612ece600083018a612cb9565b8181036020830152612ee081896128d4565b90508181036040830152612ef481886128d4565b90508181036060830152612f0881876128d4565b9050612f176080830186612cb9565b612f2460a083018561279b565b612f3160c083018461288c565b98975050505050505050565b600060c082019050612f526000830189612cb9565b612f5f6020830188612cb9565b8181036040830152612f7181876128d4565b9050612f806060830186612cb9565b8181036080830152612f9281856128d4565b9050612fa160a083018461288c565b979650505050505050565b6000604051905081810181811067ffffffffffffffff82111715612fd357612fd261320f565b5b8060405250919050565b600067ffffffffffffffff821115612ff857612ff761320f565b5b601f19601f8301169050602081019050919050565b6000819050602082019050919050565b6000819050602082019050919050565b600081519050919050565b600081519050919050565b600081519050919050565b6000602082019050919050565b6000602082019050919050565b600082825260208201905092915050565b600082825260208201905092915050565b600082825260208201905092915050565b600082825260208201905092915050565b60006130b7826130ca565b9050919050565b60008115159050919050565b600073ffffffffffffffffffffffffffffffffffffffff82169050919050565b6000819050919050565b82818337600083830152505050565b60005b83811015613121578082015181840152602081019050613106565b83811115613130576000848401525b50505050565b6000600282049050600182168061314e57607f821691505b60208210811415613162576131616131e0565b5b50919050565b6000613173826130ea565b91507fffffffffffffffffffffffffffffffffffffffffffffffffffffffffffffffff8214156131a6576131a56131b1565b5b600182019050919050565b7f4e487b7100000000000000000000000000000000000000000000000000000000600052601160045260246000fd5b7f4e487b7100000000000000000000000000000000000000000000000000000000600052602260045260246000fd5b7f4e487b7100000000000000000000000000000000000000000000000000000000600052604160045260246000fd5b6000601f19601f8301169050919050565b613258816130ac565b811461326357600080fd5b50565b61326f816130ea565b811461327a57600080fd5b5056fea264697066735822122049878606495519f56c8b36c8d361b346b98309705420d73828911f896289810864736f6c63430008000033",
  "immutableReferences": {},
  "source": "// SPDX-License-Identifier: MIT\r\npragma solidity ^0.8.0;\r\n\r\ncontract StudentCredential {\r\n    address public admin;\r\n\r\n    struct Student {\r\n        uint256 studentId;\r\n        string fullName;\r\n        string dateOfBirth;\r\n        string course;\r\n        uint256 enrollmentYear;\r\n        address walletAddress;\r\n        bool exists;\r\n    }\r\n\r\n    struct Grade {\r\n        string subjectName;\r\n        string semester;\r\n        uint256 score;\r\n    }\r\n\r\n    struct Degree {\r\n        uint256 degreeId;\r\n        uint256 studentId;\r\n        string degreeType;\r\n        uint256 issueDate;\r\n        string issuingOrganization;\r\n        bool revoked;\r\n    }\r\n\r\n    mapping(uint256 => Student) public students;\r\n    mapping(uint256 => Grade[]) public studentGrades;\r\n    mapping(uint256 => Degree) public degrees;\r\n    mapping(uint256 => uint256[]) public studentDegrees;\r\n    mapping(address => uint256) public walletToStudentId; // Mapping từ wallet address -> student ID\r\n    uint256[] public studentIds; // Track all student IDs\r\n\r\n    uint256 public nextDegreeId = 1;\r\n\r\n    modifier onlyAdmin() {\r\n        require(msg.sender == admin, \"Only admin can perform this action\");\r\n        _;\r\n    }\r\n\r\n    constructor() {\r\n        admin = msg.sender;\r\n    }\r\n\r\n    function setAdmin(address _newAdmin) public onlyAdmin {\r\n        require(_newAdmin != address(0), \"Invalid admin address\");\r\n        admin = _newAdmin;\r\n    }\r\n\r\n    function createStudent(\r\n        uint256 _studentId,\r\n        string memory _fullName,\r\n        string memory _dateOfBirth,\r\n        string memory _course,\r\n        uint256 _enrollmentYear,\r\n        address _walletAddress\r\n    ) public onlyAdmin {\r\n        require(!students[_studentId].exists, \"Student already exists\");\r\n        require(_walletAddress != address(0), \"Invalid wallet address\");\r\n        students[_studentId] = Student(_studentId, _fullName, _dateOfBirth, _course, _enrollmentYear, _walletAddress, true);\r\n        walletToStudentId[_walletAddress] = _studentId; // Lưu mapping wallet -> student ID\r\n        studentIds.push(_studentId); // Add to student IDs list\r\n    }\r\n\r\n    function updateStudent(\r\n        uint256 _studentId,\r\n        string memory _fullName,\r\n        string memory _dateOfBirth,\r\n        string memory _course,\r\n        uint256 _enrollmentYear\r\n    ) public onlyAdmin {\r\n        require(students[_studentId].exists, \"Student does not exist\");\r\n        students[_studentId].fullName = _fullName;\r\n        students[_studentId].dateOfBirth = _dateOfBirth;\r\n        students[_studentId].course = _course;\r\n        students[_studentId].enrollmentYear = _enrollmentYear;\r\n    }\r\n\r\n    function addGrade(\r\n        uint256 _studentId,\r\n        string memory _subjectName,\r\n        string memory _semester,\r\n        uint256 _score\r\n    ) public onlyAdmin {\r\n        require(students[_studentId].exists, \"Student does not exist\");\r\n        studentGrades[_studentId].push(Grade(_subjectName, _semester, _score));\r\n    }\r\n\r\n    function getStudentGrades(uint256 _studentId) public view returns (Grade[] memory) {\r\n        return studentGrades[_studentId];\r\n    }\r\n\r\n    function issueDegree(\r\n        uint256 _studentId,\r\n        string memory _degreeType,\r\n        string memory _issuingOrganization\r\n    ) public onlyAdmin {\r\n        require(students[_studentId].exists, \"Student does not exist\");\r\n        degrees[nextDegreeId] = Degree(nextDegreeId, _studentId, _degreeType, block.timestamp, _issuingOrganization, false);\r\n        studentDegrees[_studentId].push(nextDegreeId);\r\n        nextDegreeId++;\r\n    }\r\n\r\n    function revokeDegree(uint256 _degreeId) public onlyAdmin {\r\n        require(degrees[_degreeId].degreeId != 0, \"Degree does not exist\");\r\n        degrees[_degreeId].revoked = true;\r\n    }\r\n\r\n    function verifyDegree(uint256 _degreeId) public view returns (bool isValid, Degree memory degree) {\r\n        degree = degrees[_degreeId];\r\n        if (degree.degreeId == 0) {\r\n            return (false, degree);\r\n        }\r\n        isValid = !degree.revoked;\r\n    }\r\n\r\n    function getStudent(uint256 _studentId) public view returns (Student memory) {\r\n        return students[_studentId];\r\n    }\r\n\r\n    function getAllStudentIds() public view returns (uint256[] memory) {\r\n        return studentIds;\r\n    }\r\n\r\n    function getStudentCount() public view returns (uint256) {\r\n        return studentIds.length;\r\n    }\r\n\r\n    function getDegreesByStudent(uint256 _studentId) public view returns (uint256[] memory) {\r\n        return studentDegrees[_studentId];\r\n    }\r\n\r\n    // ===================================\r\n    // STUDENT-ONLY FUNCTIONS (Phân quyền)\r\n    // ===================================\r\n\r\n    /**\r\n     * Lấy ID sinh viên từ địa chỉ ví hiện tại\r\n     * Chỉ sinh viên có thể gọi hàm này\r\n     */\r\n    function getStudentIdByWallet(address _walletAddress) public view returns (uint256) {\r\n        return walletToStudentId[_walletAddress];\r\n    }\r\n\r\n    /**\r\n     * Lấy thông tin sinh viên của chính mình từ ví hiện tại\r\n     * Chỉ sinh viên sở hữu ví đó mới được xem\r\n     */\r\n    function getStudentByWallet(address _walletAddress) public view returns (Student memory) {\r\n        uint256 studentId = walletToStudentId[_walletAddress];\r\n        require(studentId != 0 || students[studentId].exists, \"Student not found for this wallet\");\r\n        return students[studentId];\r\n    }\r\n\r\n    /**\r\n     * Lấy điểm số của sinh viên từ ví hiện tại\r\n     * Chỉ sinh viên sở hữu ví đó mới được xem\r\n     */\r\n    function getStudentGradesByWallet(address _walletAddress) public view returns (Grade[] memory) {\r\n        uint256 studentId = walletToStudentId[_walletAddress];\r\n        require(studentId != 0 || students[studentId].exists, \"Student not found for this wallet\");\r\n        return studentGrades[studentId];\r\n    }\r\n\r\n    /**\r\n     * Lấy bằng cấp của sinh viên từ ví hiện tại\r\n     * Chỉ sinh viên sở hữu ví đó mới được xem\r\n     */\r\n    function getStudentDegreesByWallet(address _walletAddress) public view returns (uint256[] memory) {\r\n        uint256 studentId = walletToStudentId[_walletAddress];\r\n        require(studentId != 0 || students[studentId].exists, \"Student not found for this wallet\");\r\n        return studentDegrees[studentId];\r\n    }\r\n}",
  "sourcePath": "F:\\BlockChain_QuanLySinhVien\\test\\contracts\\StudentCredential.sol",
  "compiler": {
    "name": "solc",
    "version": "0.8.0+commit.c7dfd78e.Emscripten.clang"
  },
  "schemaVersion": "3.4.16",
  "updatedAt": "2026-03-13T01:19:12.346Z",
  "networkType": "ethereum",
  "devdoc": {
    "kind": "dev",
    "methods": {},
    "version": 1
  },
  "userdoc": {
    "kind": "user",
    "methods": {
      "getStudentByWallet(address)": {
        "notice": "Lấy thông tin sinh viên của chính mình từ ví hiện tại Chỉ sinh viên sở hữu ví đó mới được xem"
      },
      "getStudentDegreesByWallet(address)": {
        "notice": "Lấy bằng cấp của sinh viên từ ví hiện tại Chỉ sinh viên sở hữu ví đó mới được xem"
      },
      "getStudentGradesByWallet(address)": {
        "notice": "Lấy điểm số của sinh viên từ ví hiện tại Chỉ sinh viên sở hữu ví đó mới được xem"
      },
      "getStudentIdByWallet(address)": {
        "notice": "Lấy ID sinh viên từ địa chỉ ví hiện tại Chỉ sinh viên có thể gọi hàm này"
      }
    },
    "version": 1
  }
}